:100000000C9434000C9449000C9449000C94490061
:100010000C9449000C9449000C9449000C9449003C
:100020000C9449000C9449000C9449000C9449002C
:100030000C9449000C9449000C9449000C9449001C
:100040000C9449000C9449000C9449000C9449000C
:100050000C9449000C9449000C9449000C944900FC
:100060000C9449000C94490011241FBECFEFD8E036
:10007000DEBFCDBF11E0A0E0B1E0E8EDF0E002C0EE
:1000800005900D92AA30B107D9F70E944B000C944D
:100090006A000C9400008FEF8AB98091C100877EBE
:1000A0008093C10090EC80E09BB92FEF33ED90E39B
:1000B000215030409040E1F700C000008F5F8A304F
:1000C00018F090EC80E0F0CFE82FF0E0E050FF4F28
:0800D0009081EACFF894FFCF04
:0A00D800C0F9A4B0999282F880905C
:00000001FF
