:100000000C943A000C9457000C9457000C94570031
:100010000C9457000C9457000C9457000C94570004
:100020000C9457000C9457000C9457000C945700F4
:100030000C9457000C9457000C9457000C945700E4
:100040000C9457000C9457000C9457000C945700D4
:100050000C9457000C9457000C9457000C945700C4
:100060000C9457000C9457006364696E6F7073753D
:1000700078585B0011241FBECFEFD8E0DEBFCDBFA4
:1000800011E0A0E0B1E0E8EBFDE002C005900D92C8
:10009000A232B107D9F721E0A2E2B1E001C01D927E
:1000A000A633B207E1F70E9479000C94DA060C94AB
:1000B00000009091C00095FFFCCF8093C60090E0B7
:1000C00080E008958091C00087FFFCCF8091C6003A
:1000D00090E0089587E690E09093C5008093C40077
:1000E0001092C00088E18093C10086E08093C20036
:1000F0000895CF93DF9300D0CDB7DEB787E690E0C9
:100100009093C5008093C4001092C00088E1809352
:10011000C10086E08093C20082E291E029E530E0F0
:1001200030932B0120932A0122E630E030932D01F9
:1001300020932C0123E02093250110922F0110928F
:100140002E01909335018093340190933301809375
:100150003201909331018093300180E091E00E9460
:10016000E900CE0101965C01CC24C394D12C9EE021
:10017000E92E91E0F92E01E111E0DA82C982BF9205
:10018000AF92FF92EF920E9414018A818F9389812E
:100190008F931F930F930E94D3000FB6F894DEBF86
:1001A0000FBECDBFEACFB0E0A0E0E9EDF0E00C94E7
:1001B000B306AE014B5F5F4FFA0161917191AF01E0
:1001C00080913201909133010E942A01E2E00C9467
:1001D000CF060F931F93CF93DF93E0913201F091FD
:1001E00033012381EC0110E000E021FD08C00FEF96
:1001F0001FEF14C00995892B11F00FEF1FEF8991A4
:100200006091320170913301DB011896ED91FC9100
:100210008111F0CF8AE00995892B49F7C801DF9158
:10022000CF911F910F910895B0E0A0E0EAE1F1E0D5
:100230000C94B306AE014B5F5F4FFA01619171916F
:10024000AF0180913001909131010E948F04E2E072
:100250000C94CF06ABE0B0E0E0E3F1E00C94A30631
:100260007C013B018A01FC0117821682838181FF98
:10027000C8C1CE0101965C01F7019381F30193FDA2
:10028000859193FF81913F01882309F453C1853201
:1002900039F493FD859193FF81913F01853229F4D3
:1002A000B70190E00E94FA05E7CF912C212C312C68
:1002B000FFE1F31538F08B3211F190F4803209F13F
:1002C000833229F137FC3CC020ED280F2A3050F54D
:1002D00036FE20C08AE0989E200D1124922E06C082
:1002E0008D3291F0803371F7689430F8F30193FD0B
:1002F000859193FF81913F018111DACF21C06894EC
:1003000031F8689432F8F2CF689433F8EFCF6894FC
:1003100034F8ECCFEAE02E9E200D1124222E6894B2
:1003200035F8E4CF8E3229F436FC04C1689436F8EF
:10033000DDCF8C3619F4689437F8D8CF8836B1F20F
:10034000982F9F7D95549330E0F08336A1F1833749
:10035000C1F1833509F063C02801F2E04F0E511C52
:10036000F801C080D180692D70E036FC02C06FEFCB
:100370007FEFC6010E94A8054C01689437F88201FE
:100380000AC00C5F1F4FFFE3F98388248394912CEC
:100390006501E89437F833FE2DC0522C8114910486
:1003A00071F5552009F468CFB70180E290E00E9412
:1003B000FA055A94F6CFF801808189830E5F1F4FAA
:1003C000E4CF2801F2E04F0E511CF801C080D1802B
:1003D000692D70E036FC02C06FEF7FEFC6010E940E
:1003E000B3054C018201D5CFB70180E290E00E94B5
:1003F000FA052A942814190409F0B0F7CECFF601B3
:1004000037FC859137FE81916F01B70190E00E9422
:10041000FA0551105A94F1E08F1A9108BFCF843633
:1004200019F0893609F077C0F80137FE6BC060819A
:100430007181828193810C5F1F4FF32DFF763F2ED8
:1004400097FF09C090958095709561957F4F8F4F6C
:100450009F4F689437F82AE030E0A5010E944206D9
:10046000C82ECA188C2C432C36FE0CC0E89440F8D9
:10047000C91440F434FE05C032FC03C0F32DFE7EE7
:100480004F2E892C44FE95C0FE01EC0DF11D80819C
:10049000803309F087C0242D297E422E842D887058
:1004A000582E43FC95C040FE8FC09C2C821418F43B
:1004B0002C0C922C981844FE91C0B70180E390E078
:1004C0000E94FA0542FE09C088E790E041FE02C0A2
:1004D00088E590E0B7010E94FA05C91408F48AC0C3
:1004E000CA94D12C9FEFC91AD90ACA0CDB1CF60199
:1004F00082916F01B70190E00E94FA05AC14BD042F
:10050000B1F74FCF60817181072E000C880B990BDA
:100510000E5F1F4F92CFD32CE894D4F82AE030E03E
:10052000853739F1232D297FD22E8F3601F148F4FA
:100530008835A9F0F701868197812B96E2E10C942A
:10054000BF06803749F08837A9F7D4FE02C0689407
:10055000D2F820E130E00DC06894D4F8F6CF34FE34
:1005600003C0822F8660D82E20E132E002C028E04E
:1005700030E0F801D7FE0FC06081718182819381E4
:100580000C5F1F4FA5010E944206C82ECA183D2CC1
:10059000E89437F867CF6081718190E080E00E5F6A
:1005A0001F4FF0CF42FC02C0839478CF8394839492
:1005B00075CF842D867809F471CFF6CFB70180E22C
:1005C00090E00E94FA0583948214C0F3512C73CFFB
:1005D000522C5818821408F46ECFF8CF842D8678E8
:1005E00009F47BCF8BE241FE80E247FC8DE2B7014C
:1005F00090E071CFB70180E390E00E94FA059A94F1
:100600006CCF8FEF9FEF99CF20FD09C0FC0123FD38
:1006100005C022FF02C07383628351834083089523
:1006200044FD17C046FD1DC0DB01FC01AA0FBB1F26
:10063000EE1FFF1F1094D1F76A0F7B1F8E1F9F1FA5
:10064000660F771F881F991F620F711D811D911DF5
:10065000089533E0660F771F881F991F3150D1F737
:10066000F3CF34E0F7CF0F931F93CF93DF938C0139
:10067000C8010E94BE05EC0197FD08C00E949405C8
:10068000892BB1F7B801CE010E942A06CE01DF9175
:10069000CF911F910F9108958F929F92AF92BF9229
:1006A000EF92FF920F931F93CF93DF938C01D62F7E
:1006B0007A01B22E0E94BE059C0133272B323105F0
:1006C00029F02D323105A9F46894B7F8D15061F4BE
:1006D00080E0DF91CF911F910F91FF90EF90BF903D
:1006E000AF909F908F900895C8010E94BE0597FD1E
:1006F000EFCFCB2DCD7F2B2D2073F9F48033E9F490
:10070000AA24AA94AD0E89F0C8010E94BE0597FDE7
:100710000CC0282F2F7D283561F4C264D25029F0F7
:10072000C8010E94BE0597FF08C0812C912C54017E
:100730001BC0B6FE2BC0C260DA2D812C912C540157
:1007400020ED280F283028F1C4FD09C02A3008F117
:10075000C6FF05C02F7D3FEE320F3630C8F0B8011E
:100760000E942A06C1FFB4CFC7FF08C0B094A0946E
:1007700090948094811C911CA11CB11C2C2FB5015C
:10078000A401C7010E94040381E0A3CFC261D4CFBA
:1007900027504C2FC501B4010E9410034B015C018E
:1007A000C260D15009F3C8010E94BE0597FFC8CFAF
:1007B000D9CFA0E2B0E0EFEDF3E00C94A8065C0125
:1007C000962E7A01CE0101966C0180E2F60111921B
:1007D0008A95E9F7F501B381890130E020E0712CB9
:1007E000812CA0E041E050E0F801B3FD8591B3FF1A
:1007F0008191982F8F01811107C010E000E0C8019E
:10080000A096EDE00C94C4068E3519F4211531053F
:1008100041F1A21713064CF48D3549F18D3229F4BC
:10082000811006C0882483941DC0882009F464C008
:10083000E92FE695E695E695EC0DFD2DF11D892F46
:100840008770BA0101C0660F8A95EAF78081682B2C
:100850006083791651F0971510F49F5FE9CF91509E
:10086000E7CFA1E02F5F3F4FBFCF812CFBCF882088
:1008700019F08E8180628E83AA2359F0F6019E01C1
:100880002F5D3F4F8081809580833196E217F3077B
:10089000C9F788248394C5010E94BE0597FD16C040
:1008A000E82FE695E695E695EC0DFD2DF11D2081EE
:1008B00030E0AC014770552702C0359527954A9521
:1008C000E2F720FD06C0B5010E942A06882069F0E3
:1008D00094CFE114F10429F0F7018083C701019658
:1008E0007C019A94812C9110D6CFE114F10409F483
:1008F00086CFF701108283CFE82FE695E695E6953F
:10090000EC0DFD2DF11D982F9770BA0101C0660FF7
:100910009A95EAF79081692B6083782EA3CFB0E097
:10092000A0E0E5E9F4E00C94A6066C01EB015A01A5
:10093000FC0117821682512CF601E380FE01E3FCD4
:100940008591E3FE8191182FEF018823E9F090E073
:100950000E949405892B21F0C6010E943303ECCF3D
:10096000153241F4FE01E3FC1591E3FE1191EF0114
:10097000153269F4C6010E94BE0597FD8EC0181796
:10098000D9F2B6010E942A06852D90E08AC000E0C7
:100990001A3231F4E3FC1591E3FE1191EF0101E00D
:1009A000F12C20ED210F2A3048F101FF37C0FF2044
:1009B00059F31836B1F11C3609F43DC0112321F367
:1009C000612F70E088E690E00E949D05892BE1F29E
:1009D000912C812C00FD06C0F50180809180C5011D
:1009E00002965C011E3679F5F6014681578170E06A
:1009F00060E0202FC4010E9404039ECF02606F2D8F
:100A000070E090E080E040E20E941003F62EFE01CC
:100A1000E3FC1591E3FE1191EF01C3CFFF24FA949B
:100A2000C8CFFE01E3FC1591E3FE1191EF011836EA
:100A300009F0C4CF08600460FE01E3FC1591E3FEF9
:100A40001191EF01BBCF1336C1F401FD02C0FF24A9
:100A5000F394C6010E94BE0597FD1FC08114910446
:100A600029F0F4018083C40101964C01FA94F1103D
:100A7000F0CF00FD61CF53945FCF1B35B9F49E01D9
:100A8000A4016F2DC6010E94D903EC01892B89F7BF
:100A9000F6018381807309F477CF8FEF9FEF5110B8
:100AA00073CFCDB7DEB7EFE00C94C206C6010E944B
:100AB000330397FDF2CF1F36A9F130F4143641F01D
:100AC000193639F0006405C01337B9F01537D1F77E
:100AD0000062202FA4016F2DC6010E944C038111DA
:100AE000C8CFD6CF8114910429F0F4016082C401EB
:100AF00001964C01FA94FF2071F0C6010E94BE05D8
:100B00003C0197FD08C00E949405892B59F3B6015A
:100B1000C3010E942A068114910409F4AACFF401AA
:100B20001082A7CF0061D5CF91110C94A00680321E
:100B300019F089508550C8F70895FC0105900616F4
:100B400021F00020D9F7C00108953197CF01089511
:100B5000FC010590615070400110D8F78095909588
:100B60008E0F9F1F0895FC0161507040019001108D
:100B7000D8F7809590958E0F9F1F0895CF93DF93A0
:100B8000EC012B8120FF1AC026FF0CC02F7B2B838A
:100B90008E819F8101969F838E838A8190E0DF9171
:100BA000CF91089522FF18C0E881F9818081082E35
:100BB000000C990B009729F420622B838FEF9FEF95
:100BC000EECF3196F983E8832E813F812F5F3F4F2F
:100BD0003F832E839927E3CFEA85FB85099597FF0D
:100BE000F3CF2B81019621F080E2822B8B83E6CF1D
:100BF00080E1FBCF0F931F93CF93DF93182F092F23
:100C0000EB018B8181FD09C01FEF0FEF812F902F2A
:100C1000DF91CF911F910F91089582FF14C02E8113
:100C20003F818C819D81281739073CF4E881F98147
:100C3000CF0101969983888310838E819F810196CD
:100C40009F838E83E3CFE885F985812F0995892BD2
:100C5000A1F3DACFFB01238120FF11C026FD0FC0D5
:100C60008F3F980771F082832F7D20642383268134
:100C700037812150310937832683992708958FEFD3
:100C80009FEF0895FA01AA27283051F1203181F110
:100C9000E8946F936E7F6E5F7F4F8F4F9F4FAF4F84
:100CA000B1E03ED0B4E03CD0670F781F891F9A1F97
:100CB000A11D680F791F8A1F911DA11D6A0F711D4B
:100CC000811D911DA11D20D009F468943F912AE057
:100CD000269F11243019305D3193DEF6CF0108953F
:100CE000462F4770405D4193B3E00FD0C9F7F6CF70
:100CF000462F4F70405D4A3318F0495D31FD405238
:100D0000419302D0A9F7EACFB4E0A69597958795CD
:100D100077956795BA95C9F70097610571050895AC
:100D20009B01AC010A2E0694579547953795279558
:100D3000BA95C9F7620F731F841F951FA01D0895F0
:100D40009927882708952F923F924F925F926F9232
:100D50007F928F929F92AF92BF92CF92DF92EF924B
:100D6000FF920F931F93CF93DF93CDB7DEB7CA1BCC
:100D7000DB0B0FB6F894DEBF0FBECDBF09942A88F7
:100D8000398848885F846E847D848C849B84AA849F
:100D9000B984C884DF80EE80FD800C811B81AA812C
:100DA000B981CE0FD11D0FB6F894DEBF0FBECDBFF7
:080DB000ED010895F894FFCF56
:100DB80048656C6C6F20776F726C64210D00256438
:100DC800004F64637A7974616E6F3A2025640D0A66
:020DD800000019
:00000001FF
