:100000000C9434000C9451000C9451000C94510049
:100010000C9451000C9451000C9451000C9451001C
:100020000C9451000C9451000C9451000C946400F9
:100030000C9451000C9451000C9451000C945100FC
:100040000C9451000C9451000C9451000C945100EC
:100050000C9451000C9451000C9451000C945100DC
:100060000C9451000C94510011241FBECFEFD8E026
:10007000DEBFCDBF11E0A0E0B1E0E6EEF9E002C0E6
:1000800005900D92A633B107D9F721E0A6E3B1E0C0
:1000900001C01D92A235B207E1F70E94A3000C94A3
:1000A000F1040C9400009091C00095FFFCCF809368
:1000B000C60090E080E008958091C00087FFFCCFEB
:1000C0008091C60090E008951F920F920FB60F9294
:1000D00011242F933F934F935F936F937F938F934D
:1000E0009F93AF93209136013091370140913801B1
:1000F0005091390160913A0170913B0180913C012E
:1001000090913D01A1E00E94EF01209336013093D0
:100110003701409338015093390160933A0170934D
:100120003B0180933C0190933D01AF919F918F9152
:100130007F916F915F914F913F912F910F900FBEE3
:100140000F901F9018952C9A259A87E690E090932F
:10015000C5008093C4001092C00088E18093C10064
:1001600086E08093C2008EE391E023E530E0309397
:100170004701209346012CE530E03093490120935C
:10018000480123E02093410110924B0110924A0153
:10019000909351018093500190934F0180934E01B1
:1001A00090934D0180934C018BE08093810089EF07
:1001B00090E0909389008093880082E080936F00A4
:1001C0008AE191E00E941102F894709136016091E9
:1001D0003701509138014091390180913A01809165
:1001E0003B0180913C0180913D0178949B01CA01C3
:1001F000A32EB22EC92ED82E83B182958170C82F1E
:1002000020E0D22F81E090E0F12CE12C10E000E022
:1002100031E3232E31E0332E0FC0CD2B59F02D9A30
:100220008FE39CE90197F1F700C0000063015201E0
:1002300090E080E0C92DD82D23B199249394812C8E
:10024000322F307124FF912CF89460913601509137
:100250003701409138012091390170913A01709134
:100260003B0170913C0170913D017894462E552ED2
:10027000642E722E332389F2B301A2014A195B095D
:100280006C097D09209709F44CC0E114F104D1F107
:100290004835F2E05F0761057105A0F1C7010197DC
:1002A000059708F079C0EE0CFF1CE294F29480EF01
:1002B000F822FE24E822FE240F710E29E0E0F1E08E
:1002C00006C08AE191E08E179F0709F44BC09F0199
:1002D0002050314081910813F4CF2F5B30E03F93E1
:1002E0002F933F922F920E94FB010F900F900F903F
:1002F0000F906301520190E080E0F12CE12C10E0BE
:1003000000E098CF009709F095CF0115110509F08D
:1003100091CF483755406105710508F040C0C801CC
:1003200089CF2D98000F111F21E030E0493C510585
:100330006105710510F430E020E0022B132BEFEF84
:10034000EE1AFE0AEFE3FCE93197F1F700C0000076
:1003500031E020E0892B09F430E0832F922F6301F4
:10036000520168CF0F3A19F1073A21F1033A29F106
:10037000013A31F1003A39F1003B41F1083B49F1D2
:100380000C3B51F129E330E00E3B09F4A8CF20E308
:1003900030E00F3B09F4A3CF2FE330E0A0CF8FE292
:1003A00091E00E941102CE016301520143CF21E38B
:1003B00030E095CF22E330E092CF23E330E08FCFDF
:1003C00024E330E08CCF25E330E089CF26E330E032
:1003D00086CF27E330E083CF28E330E080CF0024CE
:1003E000A7FD00942A0F301D401D501D601D701D7B
:1003F000801D901D0895B0E0A0E0E1E0F2E00C94D3
:10040000CA04AE014B5F5F4FFA0161917191AF0178
:1004100080914E0190914F010E943C02E2E00C94C9
:10042000E6040F931F93CF93DF93E0914E01F09179
:100430004F012381EC0110E000E021FD08C00FEF27
:100440001FEF14C00995892B11F00FEF1FEF899151
:1004500060914E0170914F01DB011896ED91FC9176
:100460008111F0CF8AE00995892B49F7C801DF9106
:10047000CF911F910F910895ABE0B0E0E2E4F2E07C
:100480000C94BA047C013B018A01FC01178216829C
:10049000838181FFC8C1CE0101965C01F701938180
:1004A000F30193FD859193FF81913F01882309F426
:1004B00053C1853239F493FD859193FF81913F01BA
:1004C000853229F4B70190E00E942C04E7CF912CEB
:1004D000212C312CFFE1F31538F08B3211F190F41F
:1004E000803209F1833229F137FC3CC020ED280F1E
:1004F0002A3050F536FE20C08AE0989E200D112447
:10050000922E06C08D3291F0803371F7689430F8E6
:10051000F30193FD859193FF81913F018111DACF22
:1005200021C0689431F8689432F8F2CF689433F8B7
:10053000EFCF689434F8ECCFEAE02E9E200D112422
:10054000222E689435F8E4CF8E3229F436FC04C1AB
:10055000689436F8DDCF8C3619F4689437F8D8CF24
:100560008836B1F2982F9F7D95549330E0F0833612
:10057000A1F18337C1F1833509F063C02801F2E0AE
:100580004F0E511CF801C080D180692D70E036FCFF
:1005900002C06FEF7FEFC6010E9416044C01689401
:1005A00037F882010AC00C5F1F4FFFE3F9838824EC
:1005B0008394912C6501E89437F833FE2DC0522CBA
:1005C0008114910471F5552009F468CFB70180E2D8
:1005D00090E00E942C045A94F6CFF8018081898320
:1005E0000E5F1F4FE4CF2801F2E04F0E511CF801BF
:1005F000C080D180692D70E036FC02C06FEF7FEFC4
:10060000C6010E9421044C018201D5CFB70180E2CE
:1006100090E00E942C042A942814190409F0B0F7E1
:10062000CECFF60137FC859137FE81916F01B7017E
:1006300090E00E942C0451105A94F1E08F1A910816
:10064000BFCF843619F0893609F077C0F80137FE3C
:100650006BC060817181828193810C5F1F4FF32D8C
:10066000FF763F2E97FF09C0909580957095619514
:100670007F4F8F4F9F4F689437F82AE030E0A501F5
:100680000E945C04C82ECA188C2C432C36FE0CC069
:10069000E89440F8C91440F434FE05C032FC03C0AD
:1006A000F32DFE7E4F2E892C44FE95C0FE01EC0DED
:1006B000F11D8081803309F087C0242D297E422ED0
:1006C000842D8870582E43FC95C040FE8FC09C2C12
:1006D000821418F42C0C922C981844FE91C0B70187
:1006E00080E390E00E942C0442FE09C088E790E07D
:1006F00041FE02C088E590E0B7010E942C04C914B5
:1007000008F48AC0CA94D12C9FEFC91AD90ACA0C1E
:10071000DB1CF60182916F01B70190E00E942C046E
:10072000AC14BD04B1F74FCF60817181072E000C6E
:10073000880B990B0E5F1F4F92CFD32CE894D4F8FF
:100740002AE030E0853739F1232D297FD22E8F36EC
:1007500001F148F48835A9F0F701868197812B963D
:10076000E2E10C94D604803749F08837A9F7D4FE2B
:1007700002C06894D2F820E130E00DC06894D4F84B
:10078000F6CF34FE03C0822F8660D82E20E132E0FF
:1007900002C028E030E0F801D7FE0FC0608171810F
:1007A000828193810C5F1F4FA5010E945C04C82EBB
:1007B000CA183D2CE89437F867CF6081718190E0CA
:1007C00080E00E5F1F4FF0CF42FC02C0839478CFD1
:1007D0008394839475CF842D867809F471CFF6CFF6
:1007E000B70180E290E00E942C0483948214C0F34D
:1007F000512C73CF522C5818821408F46ECFF8CFB6
:10080000842D867809F47BCF8BE241FE80E247FCA1
:100810008DE2B70190E071CFB70180E390E00E94D4
:100820002C049A946CCF8FEF9FEF99CFFC01059029
:10083000615070400110D8F7809590958E0F9F1FE2
:100840000895FC016150704001900110D8F7809527
:1008500090958E0F9F1F08950F931F93CF93DF9353
:10086000182F092FEB018B8181FD09C01FEF0FEFBE
:10087000812F902FDF91CF911F910F91089582FFCB
:1008800014C02E813F818C819D81281739073CF44B
:10089000E881F981CF0101969983888310838E8145
:1008A0009F8101969F838E83E3CFE885F985812F11
:1008B0000995892BA1F3DACFFA01AA27283051F143
:1008C000203181F1E8946F936E7F6E5F7F4F8F4F81
:1008D0009F4FAF4FB1E03ED0B4E03CD0670F781FE0
:1008E000891F9A1FA11D680F791F8A1F911DA11DC5
:1008F0006A0F711D811D911DA11D20D009F46894FE
:100900003F912AE0269F11243019305D3193DEF6A5
:10091000CF010895462F4770405D4193B3E00FD05B
:10092000C9F7F6CF462F4F70405D4A3318F0495D46
:1009300031FD4052419302D0A9F7EACFB4E0A69529
:100940009795879577956795BA95C9F7009761054B
:10095000710508959B01AC010A2E069457954795A1
:1009600037952795BA95C9F7620F731F841F951F96
:10097000A01D08952F923F924F925F926F927F92A7
:100980008F929F92AF92BF92CF92DF92EF92FF929F
:100990000F931F93CF93DF93CDB7DEB7CA1BDB0B4B
:1009A0000FB6F894DEBF0FBECDBF09942A883988F0
:1009B00048885F846E847D848C849B84AA84B984F7
:1009C000C884DF80EE80FD800C811B81AA81B98103
:1009D000CE0FD11D0FB6F894DEBF0FBECDBFED0117
:0609E0000895F894FFCF1A
:1009E60041888A64208266804087658443426786A0
:1009F6008D626021618163898B8C4D6F7273652076
:100A06006465636F64657220737461727465640DE6
:060A160000256320000032
:00000001FF
