:100000000C9434000C9446000C9446000C9446006A
:100010000C9446000C9446000C9446000C94460048
:100020000C9446000C9446000C9446000C94480036
:100030000C9446000C9446000C9446000C94460028
:100040000C9446000C9446000C9446000C94460018
:100050000C9446000C9446000C9446000C94460008
:100060000C9446000C94460011241FBECFEFD8E03C
:10007000DEBFCDBF21E0A0E0B1E001C01D92A43001
:10008000B207E1F70E947C000C9405010C9400007B
:100090001F920F920FB60F9211248F939F93AF93DD
:1000A000BF938091000190910101A0910201B09154
:1000B00003010196A11DB11D8093000190930101E0
:1000C000A0930201B0930301BF91AF919F918F91D3
:1000D0000F900FBE0F901F901895F8948BE08093AF
:1000E000810089EF90E0909389008093880082E0FE
:1000F00080936F0078940895CF93DF93CDB7DEB7E8
:10010000C055D1090FB6F894DEBF0FBECDBF2C9AF3
:10011000259AF8948BE08093810089EF90E090938A
:1001200089008093880082E080936F00789433B1D7
:100130003295317050E040E090E080E023B12295AC
:100140002170321761F1C0900001D0900101E09060
:100150000201F090030138EEC30E33E0D31EE11C20
:10016000F11CBA016F5F7F4F6F7077278617970773
:1001700019F401968F709927FA01EE0FFF1FEE0F09
:10018000FF1FE40FF51F41E050E04C0F5D1FE40F2F
:10019000F51F2083C182D282E382F482AB018417EF
:1001A000950749F1C0900001D0900101E090020153
:1001B000F0900301DC01AA0FBB1FAA0FBB1FA80F01
:1001C000B91F61E070E06C0F7D1FA60FB71F11967D
:1001D0008D909D90AD90BC901497C814D904EA04FA
:1001E000FB0448F03C91332371F02D9801968F70F9
:1001F000907897FD02C0322FA1CF0197806F9F6F3B
:0E0200000196322F9BCF2D9AF1CFF894FFCFAD
:00000001FF
