:100000000C9434000C9449000C9449000C94490061
:100010000C9449000C9449000C9449000C9449003C
:100020000C9449000C9449000C9449000C9449002C
:100030000C9449000C9449000C9449000C9449001C
:100040000C9449000C9449000C9449000C9449000C
:100050000C9449000C9449000C9449000C944900FC
:100060000C9449000C94490011241FBECFEFD8E036
:10007000DEBFCDBF12E0A0E0B1E0E8ECF3E002C0EB
:1000800005900D92AE33B107D9F70E9404010C948C
:10009000E2010C9400001092C50087E68093C40032
:1000A00088E18093C10086E08093C200089580912A
:1000B000C00087FFFCCF8091C60008952D9A2FEFD6
:1000C00084E39CE0215080409040E1F700C00000B4
:1000D0002D9808952D9A2FEF88E09DE321508040C0
:1000E0009040E1F700C000002D9808958E32C1F0D5
:1000F0008D3251F02FEF84E39CE0215080409040FE
:10010000E1F700C0000008952D9A2FEF88E09DE3ED
:10011000215080409040E1F700C000002D98EACFC8
:100120002D9A2FEF84E39CE0215080409040E1F72E
:1001300000C000002D98DECF9FE9980F9A3108F497
:100140008052E0910001F091010190818917E9F05E
:10015000E4E0F1E021E030E006C02F5F3F4F34964D
:100160002532310579F0A081B1819C919813F5CFAA
:10017000220F331F220F331FF901E050FF4F8281FE
:100180009381089590E080E0089530E020E0F0CF82
:10019000FC019081992369F131969032E1F42AC0F3
:1001A0009D3259F42D9A2FEF88E09DE32150804035
:1001B0009040E1F700C000002D982FEF84E39CE011
:1001C000215080409040E1F700C0000091919923B8
:1001D00081F0903279F09E3219F72D9A2FEF84E357
:1001E0009CE0215080409040E1F700C000002D9835
:1001F000E4CF08952FEF82E795E5215080409040AD
:10020000E1F700C000000895CF93DF93CDB7DEB7CC
:10021000C456D1090FB6F894DEBF0FBECDBF259AE4
:100220001092C50087E68093C40088E18093C100E6
:1002300086E08093C20030E020E08091C00087FF1C
:10024000FCCF8091C6008D3079F08A3069F023367A
:1002500031059CF7E1E0F0E0EC0FFD1FE20FF31F2A
:1002600080832F5F3F4FE9CF81E090E08C0F9D1F8F
:10027000280F391FF90110823981332309F468C02E
:10028000AE014E5F5F4F303209F46EC08FE9830FCD
:100290008A3108F43052E0910001F091010180812F
:1002A000381709F48CC0E4E0F1E081E090E006C08A
:1002B000019634968532910509F45FC0A081B18121
:1002C0002C912313F5CF880F991F880F991FFC01DC
:1002D000E050FF4F0280F381E02D309709F44DC0CC
:1002E0008081882309F45CC031968032E9F44FC0E4
:1002F0008D3259F42D9A2FEF88E09DE321508040F4
:100300009040E1F700C000002D982FEF84E39CE0BF
:10031000215080409040E1F700C000008191882387
:1003200009F43EC0803299F18E3211F72D9A2FEFE9
:1003300084E39CE0215080409040E1F700C0000041
:100340002D98E3CF8091C6008D3059F08A3049F066
:100350008091C00087FDF6CF8091C00087FFF8CF65
:10036000F1CF30E020E069CFFFEF22E785E5F150E3
:1003700020408040E1F700C00000FA013191AF0158
:10038000311181CF8091C00087FFE6CFDBCF9FEF97
:10039000E2E7F5E59150E040F040E1F700C00000F1
:1003A000EFEFF4E32CE0E150F0402040E1F700C033
:1003B0000000FA013191AF01311165CFE3CF90E038
:0803C00080E081CFF894FFCF2B
:1003C8009401CC019601260298019A019F012F02FF
:1003D800A1013902A301A501AA013702AC011E023D
:1003E800AE013002B001FE01B201CB01B401B60189
:1003F800BB01F001BD013802BF01EF01C101C3011A
:10040800C801CA01CF019B01D1012702D301F10123
:10041800D501DE01D7010E02D901E501DB01DD01BD
:10042800E201E401E9012E02EB01ED01F301F5011E
:10043800FB01FD01030205020B020D021302150266
:100448001B021D02230225022B022D023302350254
:100458003B023B024100420043002D2E2D2E00445A
:1004680000450046002E2E2D2E004700480049006A
:100478004A004B004C002E2D2E2E004D004E004FF2
:100488000050002E2D2D2E0051002D2D2E2D005206
:10049800005300540055005600570058002D2E2ECA
:1004A8002D0059002D2E2D2D005A0030002D2D2DF8
:1004B8002D2D0031002E2D2D2D2D0032002E2E2D0C
:1004C8002D2D0033002E2E2E2D2D0034002E2E2EF5
:1004D8002E2D0035002E2E2E2E2E0036002D2E2EDF
:1004E8002E2E0037002D2D2E2E2E0038002D2D2DCE
:0E04F8002E2E0039002D2D2D2D2E002000005F
:00000001FF
