:100000000C9434000C943E000C943E000C943E0082
:100010000C943E000C943E000C943E000C943E0068
:100020000C943E000C943E000C943E000C943E0058
:100030000C943E000C943E000C943E000C943E0048
:100040000C943E000C943E000C943E000C943E0038
:100050000C943E000C943E000C943E000C943E0028
:100060000C943E000C943E0011241FBECFEFD8E04C
:10007000DEBFCDBF0E9440000C9480000C940000B5
:100080008091C100877E8093C1008AB18C6F8AB94C
:1000900084B18F6084B951E021E030E061E08BB140
:1000A0008370922F990F990F892B8BB945B1C90194
:1000B0000024880F991F001C880F991F001C892F8E
:1000C000902D8F70407F842B85B94FEF81EE94E0A7
:1000D000415080409040E1F700C00000552369F096
:1000E000220F331F211542E0340719F0213031056A
:1000F000B1F6862F851B582FD2CF36952795F2CF94
:04010000F894FFCFA1
:00000001FF
